:040000004DEF05F0CB
:100600000041542B43574A41503D224A5344204510
:100610004C454354524F4E49435320222C224750BD
:1006200053424F585F6A736440282A265E3534333C
:100630003231220D0A0041542B4349505354415248
:10064000543D342C22544350222C223138342E3144
:1006500030362E3135332E313439222C38300D0AD4
:1006600000474554202F7570646174653F6B657950
:100670003D4B4A5853324C4836314552444A444126
:1006800050266669656C64313D0041542B434950E6
:100690005345525645523D312C38300D0A004154D5
:1006A0002B43495053454E443D342C35300D0A0000
:1006B00041542B4349504D55583D310D0A0041548A
:1006C0000D0A0000000E0F013A6F000E946E010E2D
:1006D0000F01386F110E926E5AEC05F0000E0E6E7F
:1006E000C20E0F6E010E106E000E116ECAEC04F0F9
:1006F000150E216E4B0E206EBE0EE82EFED7202E5C
:10070000FCD7212EFAD700D0BE0E016E060E026E67
:1007100037EC05F0150E216E4B0E206EBE0EE82E46
:10072000FED7202EFCD7212EFAD700D0010E016E65
:10073000060E026E37EC05F0CB0E216EEC0E206E2D
:10074000840EE82EFED7202EFCD7212EFAD700D01B
:10075000BE0E016E060E026E37EC05F0290E216EFC
:10076000960E206E7F0EE82EFED7202EFCD7212E6F
:10077000FAD700F0B00E016E060E026E37EC05F0EF
:10078000150E216E4B0E206EBE0EE82EFED7202ECB
:10079000FCD7212EFAD700D08A0E016E060E026E0B
:1007A00037EC05F0150E216E4B0E206EBE0EE82EB6
:1007B000FED7202EFCD7212EFAD700D0360E016EA0
:1007C000060E026E37EC05F03D0E216EE10E206E36
:1007D000400EE82EFED7202EFCD7212EFAD79E0EF3
:1007E000016E060E026E37EC05F0150E216E4B0EF3
:1007F000206EBE0EE82EFED7202EFCD7212EFAD773
:1008000000D0000EF1EC04F001C022F002C023F091
:10081000610E016E060E026E37EC05F022C008F084
:1008200023C009F01BEC04F0330E016E060E026EBD
:1008300037EC05F08DD7000E1E6E1E50010D0E0E0A
:10084000F324D96E000EF420DA6E08C001F009C05E
:1008500002F0000E046E0A0E036E16EC05F0015055
:10086000300FDF6E08C001F009C002F0000E046E08
:100870000A0E036EA1EC04F001C008F002C009F0FA
:100880001E2A08500910D8A4D8D71EC01FF01F5028
:10089000D8B41200FF0E0A6EFF0E0B6E1F500C6EC6
:1008A0000D6A0A500C260B500D220E0E0C24D96E28
:1008B000000E0D20DA6EDF5054EC05F01F06E7D76E
:1008C000000E096E000E0A6E000E0B6E000E0C6E0E
:1008D0000550061007100810D8B42AD0010E0D6E6E
:1008E00006D0D89005360636073608360D2A08AEEB
:1008F000F8D7D89009360A360B360C360550015C0D
:10090000065002580750035808500458D8A009D080
:100910000550015E0650025A0750035A0850045A07
:100920000980D89008320732063205320D2EE1D701
:1009300009C001F00AC002F00BC003F00CC004F0C3
:100940001200000E066E000E056E03500410D8B49F
:100950001CD0010E076E04D0D89003360436072A47
:1009600004AEFAD7D890053606360350015C045021
:100970000258D8A005D00350015E0450025A0580E9
:10098000D89004320332072EEDD705C001F006C01F
:1009900002F01200000EAC6E000EAB6EAC98B88682
:1009A000AB8EAB88AC84AC8A000E016E090E026E71
:1009B0003D0E036E000E046E0EC005F00FC006F073
:1009C00010C007F011C008F060EC04F0FF0E012425
:1009D000126EFF0E0220136E1350B06E12C0AFFFE6
:1009E0001200056E050E056405D0000E026E000EA5
:1009F000016E1200000EC26EC2800544E846FC0B78
:100A0000C212290E046E960E036E7F0EE82EFED7DC
:100A1000032EFCD7042EFAD700F0C282C2B2FED752
:100A2000C290C3CF01F0C4CF02F0120003500410F3
:100A3000D8B418D0010E056E04D0D8900336043611
:100A4000052A04AEFAD70350015C04500258D8A01E
:100A500004D00350015E0450025AD890043203328D
:100A6000052EF1D701C001F002C002F012000BD038
:100A70009EA8FED701C0F6FF02C0F7FF0800F5CF21
:100A8000ADFF014A022A01C0F6FF02C0F7FF0800CD
:100A9000F5500009D8B41200EBD7000EF86E060E20
:100AA000F76E000162EF03F0016E9EA8FED701C051
:0E0AB000ADFF1200000EC16E8A0EC06E120065
:020000040020DA
:08000000FFFFFFFFFFFFFFFF00
:020000040030CA
:0E000000FF031F3CFFB580FF0FC00FE00F4055
:00000001FF
